:03000000021A5F82
:0C1A5F00787FE4F6D8FD758121021AA6FC
:101E5600566F6C746167653A252E326656202020CF
:101E66000043757272656E743A252E3266412020E3
:101E76002000506F7765723A252E32665720202053
:031E860020200019
:0E1D250041011A0042011D000042011B000096
:0E1FB40000007F5C7E327DEEDDFEDEFCDFFA9B
:011FC20022FC
:101F8100538E7F5389F0758AF0758CD8C28DD28CAF
:011F9100222D
:101F5100759850438E40538EFE53890F758BCC7507
:091F61008DFFC2ABD28ED2AC227E
:101E210075BA8090FFF2E4F090FFF0F0A3744BF0EC
:101E310090FF20E4F0A3F0A3F0A3F0A37480F0904E
:101E4100FF30E4F0A3F0A3F0A3F0A37480F0E4F575
:051E5100BA75FE8022BD
:101DAD00121F81121E21121FD2121864121DE81269
:101DBD001FB475BA8090FF20E4F0A37426F0A3E45D
:101DCD00F0A37413F090FF30E4F0A3F0A3F0A3742C
:0B1DDD0039F0E4F5BAD2A9D2AF80FEC5
:03000B000214F6E6
:1014F600C0E0C0F0C083C082C0D075D000C000C0BC
:1015060001C002C003C004C005C006C00790011A8E
:10151600E004F0E064146003021623F09001867480
:10152600FFF0A3741EF0A37456F090011DE0FCA317
:10153600E0FDE4120C017BAC7A8B795B783C120AF5
:10154600F6900189120FF07B017A01791F1210D8EB
:101556007B017A01791FE4FDFF121CCD9001867490
:10156600FFF0A3741EF0A37467F090011BE0FCA3C8
:10157600E0FDE4120C017B687AE8791F783B120AD9
:10158600F6900189120FF07B017A01791F1210D8AB
:101596007B017A01791F7D02E4FF121CCD90018642
:1015A60074FFF0A3741EF0A37478F090011BE0FCA6
:1015B600A3E0FDE4120C017B687AE8791F783B1200
:1015C6000AF6C004C005C006C00790011DE0FCA3D2
:1015D600E0FDE4120C01A804A905AA06AB07D00792
:1015E600D006D005D004120AF67BAC7A8B795B78EC
:1015F6003C120AF6900189120FF07B017A01791FDD
:101606001210D87B017A01791F7D04E4FF121CCDEC
:1016160090011DE4F0A3F090011BF0A3F07F0312EC
:101626001E89AC06AD07E4120C017BCD7ACC794C51
:10163600783D120AF6C004C005C006C00790011D19
:10164600E0FCA3E0FDE4120C01D003D002D001D0EF
:1016560000120A05120C3A90011DEEF0A3EFF07F7E
:1016660004121E89AC06AD07E4120C017BCD7ACCC0
:10167600794C783D120AF6C004C005C006C0079032
:10168600011BE0FCA3E0FDE4120C01D003D002D064
:1016960001D000120A05120C3A90011BEEF0A3EFDE
:1016A600F0D007D006D005D004D003D002D001D0A8
:0C16B60000D0D0D082D083D0F0D0E03241
:03002300021EB703
:0D1EB700C0E0C0F0C083C082C0D075D0086C
:0A1EC400309807AF991219C3C298B5
:0B1ECE00D0D0D082D083D0F0D0E03222
:100026000000000000000000002F00000000070094
:10003600070000147F147F1400242A7F2A1200620E
:1000460064081323003649552250000005030000BA
:1000560000001C224100000041221C000014083E42
:1000660008140008083E0808000000A06000000808
:10007600080808080000606000000020100804025C
:10008600003E5149453E0000427F4000004261511A
:100096004946002141454B31001814127F100027B4
:1000A60045454539003C4A49493000017109050377
:1000B60000364949493600064949291E00003636A8
:1000C600000000005636000000081422410000140B
:1000D60014141414000041221408000201510906E8
:1000E60000324959513E007C1211127C007F494969
:1000F6004936003E41414122007F4141221C007F9A
:1001060049494941007F09090901003E4149497AA7
:10011600007F0808087F0000417F41000020404121
:100126003F01007F08142241007F40404040007F8D
:10013600020C027F007F0408107F003E4141413ED1
:10014600007F09090906003E4151215E007F091919
:1001560029460046494949310001017F0101003F16
:100166004040403F001F2040201F003F4038403F96
:1001760000631408146300070870080700615149FA
:10018600454300007F41410000552A552A5500008D
:1001960041417F000004020102040040404040400B
:1001A600000001020400002054545478007F4844A3
:1001B600443800384444442000384444487F0038DA
:1001C6005454541800087E0901020018A4A4A47C03
:1001D600007F080404780000447D400000408084CD
:1001E6007D00007F102844000000417F4000007C15
:1001F60004180478007C0804047800384444443821
:1002060000FC242424180018242418FC007C08046C
:10021600040800485454542000043F444020003C45
:100226004040207C001C2040201C003C4030403CCC
:10023600004428102844001CA0A0A07C004464545C
:100246004C441414141414140000000000000000A0
:100256000000000000000000000000F800000000A0
:10026600000000333000000000100C06100C0600E1
:10027600000000000000000040C07840C078400048
:10028600043F04043F040400007088FC08300000AA
:10029600001820FF211E0000F008F000E018000002
:1002A60000211C031E211E0000F0088870000000BB
:1002B6001E2123241927211010160E00000000000D
:1002C6000000000000000000000000E0180402002A
:1002D600000000071820400000020418E00000009B
:1002E6000040201807000000404080F08040400099
:1002F6000202010F01020200000000F000000000EF
:100306000101011F010101000000000000000000C2
:1003160080B0700000000000000000000000000037
:1003260000010101010101010000000000000000C0
:10033600003030000000000000000000806018045B
:10034600006018060100000000E010080810E00038
:10035600000F102020100F00001010F80000000001
:100366000020203F20200000007008080888700048
:1003760000302824222130000030088888483000C8
:100386000018202020110E000000C02010F80000E8
:1003960000070424243F240000F808888808080081
:1003A6000019212020110E0000E010888818000096
:1003B600000F112020110E0000380808C838080068
:1003C6000000003F000000000070880808887000E8
:1003D600001C222121221C0000E010080810E00069
:1003E6000000312222110F00000000C0C0000000F2
:1003F6000000003030000000000000800000000017
:10040600000080600000000000008040201008000E
:1004160000010204081020004040404040404000D7
:1004260004040404040404000008102040800000B2
:100436000020100804020100007048080808F000B7
:100446000000003036010000C030C828E810E00087
:100456000718272423140B000000C038E000000012
:10046600203C23020227382008F88888887000007C
:10047600203F202020110E00C03008080808380050
:10048600071820202010080008F808080810E000C7
:10049600203F202020100F0008F88888E808100068
:1004A600203F20202320180008F88888E80810003C
:1004B600203F200003000000C03008080838000074
:1004C60007182020221E020008F808000008F80875
:1004D600203F210101213F20000808F808080000FC
:1004E6000020203F2020000000000808F80808002F
:1004F600C08080807F00000008F888C028180800A7
:10050600203F20012638200008F8080000000000DF
:10051600203F20202020300008F8F800F8F80800D6
:10052600203F003F003F200008F830C00008F808D0
:10053600203F200007183F00E01008080810E000E0
:100546000F10202020100F0008F808080808F000F7
:10055600203F210101010000E01008080810E0001A
:100566000F18242438504F0008F8888888887000AF
:10057600203F2000030C302000708808080838004F
:100586000038202121221C00180808F80808180045
:100596000000203F2000000008F808000008F808C6
:1005A600001F202020201F000878880000C8380877
:1005B600000007380E010000F80800F80008F800EF
:1005C600033C0700073C0300081868808068180889
:1005D60020302C03032C30200838C800C838080007
:1005E6000000203F2000000010080808C838080056
:1005F6002038262120201800000000FE02020200FA
:100606000000007F40404000000C30C000000000A9
:10061600000000010638C00000020202FE000000D1
:10062600004040407F000000000004020202040077
:1006360000000000000000000000000000000000B4
:10064600808080808080808000020204000000009C
:100656000000000000000000000080808080000094
:100666000019242222223F2008F800808000000082
:10067600003F112020110E00000000808080000045
:10068600000E112020201100000000808088F80054
:10069600000E112020103F20000080808080000086
:1006A600001F222222221300008080F088888818EA
:1006B6000020203F202000000000808080808000F5
:1006C600006B94949493600008F80080808000008A
:1006D600203F210000203F20008098980000000065
:1006E6000020203F20200000000000809898000095
:1006F60000C08080807F000008F8000080808000B5
:10070600203F24022D302000000808F800000000D9
:100716000020203F20200000808080808080800094
:10072600203F20003F20003F808000808080000026
:10073600203F210000203F200000808080800000B4
:10074600001F202020201F008080008080000000E5
:1007560080FFA12020110E00000000808080800014
:10076600000E112020A0FF80808080008080800005
:1007760020203F2120000100000080808080800032
:100786000033242424241900008080E080800000A7
:100796000000001F202000008080000000808000F4
:1007A600001F202020103F20808080000080808055
:1007B60000010E30080601008080008000808080E5
:1007C6000F300C030C300F0000808000808080000A
:1007D6000020312E0E312000808080000080808035
:1007E60080818E70180601000080808080808000E5
:1007F6000021302C2221300000000000807C020203
:1008060000000000003F404000000000FF00000024
:1008160000000000FF0000000002027C80000000D3
:100826000040403F000000000006010102020404EF
:1008360000000000000000000000F010101010FF83
:1008460010101010F0000000000000000000000072
:10085600000000000000000000000F04040404FF74
:10086600040404040F000000000000000000000063
:1008760000000000000000004040405F55555575DF
:100886005555555F40404000000000000000000044
:1008960000000000000000000040200F094989798F
:1008A6000909090F204000000000000000000000B8
:1008B600000000000000000000FE02424ACA4A4A48
:1008C600CA4A4A4202FE0000000000000000000082
:1008D600000000000000000000FF40504C43404074
:1008E6004F50505C40FF0000000000000000000078
:1008F60000000000000000000000F888888888FFDB
:1009060088888888F80000000000000000000000C9
:10091600000000000000000000001F080808087F13
:10092600888888889F80F000000000000000000092
:10093600000000000000000080828282828282E243
:10094600A2928A86828080000000000000000000DB
:100956000000000000000000000000000040807F52
:100966000000000000000000000000000000000081
:1009760000000000000000002424A4FEA3220022A0
:10098600CC0000FF00000000000000000000000096
:100996000000000000000000080601FF000104043A
:1009A600040404FF02020200000000000000000030
:1009B6000000000000000000101010FF10900888D2
:1009C6008888FF8888880800000000000000000072
:1009D60000000000000000000444827F0180804087
:1009E600432C102846818000000000000000000013
:0809F6000000000000000000F9
:101F3700EF4E60157D087C07ED1DAA0470011C4A51
:091F470070F6EF1F70EA1E80E73E
:011F5000226E
:101D6B00F583E5822CF582E43583F583E493FF7DDF
:011D7B000166
:101D7C00ED6004D2838002C283C284E4FEEEC3947D
:101D8C0008748094805015C280EF30E704D28180B3
:101D9C0002C281D280EF25E0FF0E80E1D284D28393
:011DAC002214
:101ED900AC07ED24B0FFE4FD121D7CEC54F0C454B2
:101EE9000F4410FF121D7CEC540F4401FF021D7CAE
:101F9200E4FD7F8D121D7C7F14121D7C7FAF021D1C
:011FA2007CC2
:101FA300E4FD7F8D121D7C7F10121D7C7FAE021D10
:011FB3007CB1
:101DE800E4FCECC3940874809480502CEC24B0FF7D
:101DF800E4FD121D7CE4FF121D7C7F10121D7CE4A3
:101E0800FBEBC3948074809480500A7D01E4FF1238
:081E18001D7C0B80EC0C80CA5C
:011E2000229F
:061BF200AA07A905AF03DC
:101BF800E4FCEF24E0FBEAD3947F748094804004F3
:101C0800E4FA0909AF02AD01121ED9E4FCECC39451
:101C18000874809480501D75F010EBA42CF582E4B4
:101C280035F0F583E582244EF582E5833402121DF2
:101C3800750C80D9AF02E904FD121ED9E4FCECC38F
:101C4800940874809480501D75F010EBA42CF582D4
:101C5800E435F0F583E5822456F582E583340212F3
:051C68001D750C80D980
:011C6D002254
:071F19009001F0EFF0A905B3
:101F20007F017E00AD0119ED600C9001F0E0FD7CB9
:061F300000120F6580EEB7
:011F36002288
:0E1914009001D9EFF0A3EDF0A3EAF0A3EBF001
:10192200E49001E1F09001DFF09001DDE0FF900131
:10193200DFE0FEC39F40030219C2C3EF9E14FD7F86
:101942000A121F199001DBE0FCA3E0FDCFCDCFCE40
:10195200CCCE120F777C007D0A120F779001E0ED5A
:10196200F0A3E070309001DDE014FF9001DFE0FEB3
:10197200C39F5021A3E070179001DEE0C3138EF0E5
:10198200A4FF9001D9E02FFFA3E0FD7B20802590EA
:1019920001E17401F09001DEE0C313FFA3E0FEEF6A
:1019A2008EF0A4FF9001D9E02FFFA3E0FD9001E0AB
:1019B200E02430FB121BF29001DFE004F002192B4D
:0119C2002202
:101CCD00900183EFF0A3EDF0A3EBF0A3EAF0A3E90D
:011CDD00F016
:101CDE00E4A3F0900185E0FBA3E0FAA3E0F9A3E012
:101CEE00F582758300120F26FB602B900183E0FFB7
:101CFE00A3E0FD121BF2900183E02408F0E0D394E0
:101D0E0078748094804007E4F0A3E02402F0900100
:061D1E0088E004F080BD26
:011D2400229C
:041C6E00A907AA0513
:101C7200E49001F1F0121ED9E4FCECC394107480DC
:101C82009480501975F040EBA4243EF582E5F034BF
:101C920008121D6B9001F1E004F00C80DDAF01EA47
:101CA20004FD121ED9E4FCECC3941074809480509D
:101CB2001975F040EBA4245EF582E5F03408121D9C
:0A1CC2006B9001F1E004F00C80DDEE
:011CCC0022F5
:0A1AEB009001CFEFF09001D1EBF075
:101AF500E49001D6F0A3F09001D2E0FF54077008FE
:101B0500EF131313541F800A9001D2E013131354DB
:101B15001F049001D8F09001D8EDF09001D2E0FFBC
:101B25009001D8E0FDC39F50409001CFE0FF121E09
:101B3500D9E0FC9001D1E0FFECC39F50249001D384
:101B4500E0FBA3E0FAA3E0F9A3E475F001120FCCE2
:101B550085F082F583120F26FF7D01121D7C0C8016
:091B6500D29001D8E004F080B236
:011B6E002254
:10186400D2827F647E00121F37C2827F647E0012A0
:101874001F37D282E4FD7FAE121D7CE4FF121D7C73
:101884007F10121D7C7F40121D7C7F81121D7C7F86
:10189400CF121D7C7FA1121D7C7FC8121D7C7FA6E8
:1018A400121D7C7FA8121D7C7F3F121D7C7FD312EA
:1018B4001D7CE4FF121D7C7FD5121D7C7F80121DD0
:1018C4007C7FD9121D7C7FF1121D7C7FDA121D7C76
:1018D4007F12121D7C7FDB121D7C7F40121D7C7FDA
:1018E40020121D7C7F02121D7C7F8D121D7C7F14B3
:1018F400121D7C7FA4121D7C7FA6121D7C7FAF125B
:101904001D7C7FAF121D7C121DE8E4FDFF021ED971
:101D33004201C900004201C700004201CD00004238
:101D430001CB00004201C100004201C30000420177
:031D5300C50000C8
:0A1FD200E4F59243913C75DE0F2206
:101E8900EF44C0F5BC0000E5BC30E5FB53BCDFAF57
:101E9900BD7E0053BEF0E5BEC4540FFDEFC4F85437
:0D1EA9000FC868FFEEC454F048FEEF4DFF77
:011EB6002209
:101D5600410073004101190041007100410001007A
:041D660041007000C8
:061FDC00E0FF9001E3F0BC
:031FE200020003F7
:0F1FC3007F55121FE27FAA121FE27FAE021FE2BC
:101EF900900116E4F0A3F0A374EFF09000C6120F5E
:101F0900FC000000009000CA120FFC000000002233
:101B6F00E49001E2F0A3F0A3120FFC00000000903C
:101B7F0001E87410F07F55121FE27FAA121FE27F57
:101B8F00AD121FE29001E8E0FF121FE2E49001E2C4
:101B9F00F09001E8E0FF9001E2E0FEC39F503FEEBE
:101BAF0025E025E024C6F582E43400F583E0FCA3AC
:101BBF00E0FDA3E0FEA3E0FF9001E4120FF090011F
:101BCF00E7121FDC9001E6121FDC9001E5121FDC0B
:101BDF009001E4121FDC9001E2E004F080B37F0D6E
:031BEF00021FE2F0
:0B17A9009001B3EBF0A3EAF0A3E9F01D
:1017B400E4A3F0A3F09001BC120FFC42F633339083
:1017C40001C0740EF0E49001B6F09001C0E0FF9007
:1017D40001B6E0C39F40030218619001B3E0FBA38C
:1017E400E0FAA3E0F99001B7E0F582758300120FE7
:1017F400269001BBF09001B7E004F0E0F582758318
:1018040000120F269001BAF09001B7E004F0E0F561
:1018140082758300120F269001B9F09001B7E0049D
:10182400F0E0F582758300120F269001B8F0900164
:10183400B7E004F0A3E0FCA3E0FDA3E0FEA3E0FF17
:101844009001B6E025E025E02475F582E43400F546
:1018540083120FF09001B6E004F00217CE021F6A63
:101F6A00900075E0FCA3E0FDA3E0FEA3E0FFEC4DCA
:071F7A004E4F24FF92C32229
:1016C200E49001E9F0A3F0A3120FFC0000000090E7
:1016D20001EF740EF0A2A0E4FCFD92E7FE95E05447
:1016E2003FFF900079120FF0A2A1E4FCFD92E7FE09
:1016F20095E0543FFF90007D120FF0A2A3E4FCFDA1
:1017020092E7FE95E0543FFF900081120FF0A2A4F1
:10171200E4FCFD92E7FE95E0543FFF900085120F36
:10172200F07F55121FE27FAA121FE27FAB121FE267
:101732009001EFE0FF121FE2E49001E9F09001EF67
:10174200E0FF9001E9E0FEC39F5057EE25E025E05F
:101752002475F582E43400F583E0FCA3E0FDA3E008
:10176200FEA3E0FF9001EB120FF09001EEE0FF907C
:1017720001EAF0121FE29001EDE0FF9001EAF0129F
:101782001FE29001ECE0FF9001EAF0121FE29001EB
:10179200EBE0FF9001EAF0121FE29001E9E004F0B1
:0717A200809B7F0B021FE298
:10000E00900074E06005E4F01216C2121FC3121EB7
:04001E00F9021B6F59
:1019C300900000EFF0900070E0604D900001E0FFA8
:1019D300C39438748094805019900000E0FE740C16
:1019E3002FF582E43400F583EEF0900001E004F07B
:1019F300804FE4900001F0900070F0900000E064EC
:101A0300AB703E7B017A00790C1217A990007474B5
:101A130001F0900119F08029900000E024CE600CC1
:101A23001460132402701A75C7608015900074E067
:101A3300700F04F0800B9000707401F0E4900001CB
:101A4300F0900004E0A3F0900003E0A3F090000204
:0B1A5300E0A3F0900000E0900002F023
:011A5E002265
:080003008F993099FDC299228A
:051FE500AE070200033D
:1009FE00020CA6E86480F8E933E83360110460F075
:100A0E00ED33EC337009E8FCE9FDEAFEEBFF22045E
:100A1E0060DED3EB9FEA9EE99DE8C2E78CF0C2F759
:100A2E0095F0400CE8CCF8E9CDF9EACEFAEBCFFB25
:100A3E00120C7185D0F05804700320D5B3E8047001
:100A4E00075002B2D5020CB092D5EC0460F7E4CC9C
:100A5E00C0E0C398F8603B94186008400DD0E0FBEE
:100A6E00020C88E4FBFAC9FC8028E830E406E4C9ED
:100A7E00FBE4CAFCE830E305E4C9CACBFCE8540742
:100A8E006010F8C3E913F9EA13FAEB13FBEC13FC4D
:100A9E00D8F130F52FC3E49CFCEF9BFFEE9AFEEDF0
:100AAE0099FDD0E0FBEF4E4D4C701222DB03020C91
:100ABE00ADEC2CFCEF33FFEE33FEED33FDED30E706
:100ACE00EB020C88EF2BFFEE3AFEED39FDD0E0FB8A
:100ADE0050130BBB0003020CB0ED13FDEE13FEEF33
:080AEE0013FFEC13FC020C885D
:100AF600EC4D6011E8497017ED33EC3304600DE4FA
:100B0600FCFFFEFD22E933E8330470F8020CA6125E
:100B16000C7158046009E4CC24815006285009025F
:100B26000CB0284003020CADC0E0EB4A7044B9801B
:100B360006D0E0FB020C9CEF4E701CBD8008EBFF5C
:100B4600EAFEE9FD80EBE98DF0A4FEE5F0020BDF9D
:100B5600E9CDF9EAFEEBFFEF89F0A4FCE5F0CE89DA
:100B6600F0A42EFFE435F0CD89F0A42DFEE435F097
:100B76008067EF4E7005BD80D780C3EF8BF0A4ACC5
:100B8600F0EE8BF0A42CFCE435F0F8EF8AF0A42C00
:100B9600E5F038FCE433CB8DF0A42CFCE5F03BF813
:100BA600EE8AF0A42CFCE5F038F8E433CF89F0A403
:100BB6002CFCE5F038CF3400CE89F0A42FFFE5F009
:100BC6003EFEE433C98DF0A42EFEE5F039CD8AF061
:100BD600A42FFFE5F03EFEE43DFD33D0E0FB5007D9
:100BE6000BBB000F020CB0EC2CFCEF33FFEE33FE18
:060BF600ED33FD020C8846
:100BFC0075F020800E75F010800575F0087D007E74
:100C0C00007F003392D530D503120FE2EC33401045
:100C1C00EF33FFEE33FEED33FDEC33FCD5F0ED227C
:0E0C2C00E5F0247EA2D513CC92E7CDCEFF22B8
:100C3A00EDD2E7CD33EC3392D524814006E4FFFEB2
:100C4A00FDFC22FCE4CFCECDCC24E0501174FF8011
:100C5A00EDC3CC13CCCD13CDCE13CECF13CF0470AE
:070C6A00F030D5DE020FE2BD
:10107300E5102486F582E43401F583E0051022901F
:101083000183300703900186E475F00112102D02ED
:101093000F0D2000E97F2ED2008018EF540F24900B
:1010A300D43440D4FF30040BEF24BFB41A005003F0
:1010B3002461FFE511600215110514E514700205A2
:1010C3001330070E900183E475F00112102DEF0227
:1010D3000F53021FE57403D2078003E4C207F51020
:1010E300900183121044E4F511F513F514E5116032
:1010F300077F201210B680F57512FFC201C200C22D
:1011030002C203C205C206C208121082FF700D306C
:1011130007057F001210C7AF14AE1322B4255FC2B8
:10112300D5C204121082FF24D0B40A00501A75F0FD
:101133000A781130D50508B6FF0106C6A426F620A5
:10114300D5047002D20380D924CFB41A00EF50041F
:10115300C2E5D2040213B9D20180C6D20080C0D244
:101163000280BCD2D580BAD20580B47F201210B6DB
:101173002002077401B5110040F1121073FF121021
:10118300B60210F0D208D2068095121073FB12102B
:1011930073FA121073F94A4B700679B77A147BFF0E
:1011A30020022EE511602A7E008E82758300120FC5
:1011B3002660060EEE651270F0C2D5EBC0E0EAC001
:1011C300E0E9C0E0EE12141AD0E0F9D0E0FAD0E082
:1011D300FB120F0DFF60AAEBC0E0EAC0E0E9C0E03C
:1011E3001210B6D0E02401F9D0E03400FAD0E0FBCD
:1011F300E5120460DCD512D98087D20280A21213D3
:10120300FC60F7E512700104120CBBA912600DE536
:1012130012600914F5121214A4EF60F3EA30E70226
:10122300F404C3995079EAF425120430E701E40485
:10123300F512800D1213FC60C1EA05122512120C7F
:10124300BBEA9001B2F030E701E4251204D51204A1
:101253002005011412141AE4C0E01214A49001B280
:10126300E0601320E70714F012109E802204F0D0F0
:10127300E014C0E07F0012109EE512600712109583
:101283001512800B300503121095D0E00210F0D038
:10129300E00480C41213FC609EE51204120CBB90A0
:1012A30001B2EAF0E51220050260010424041214DD
:0112B3001A20
:1012B40074FF04C0E01214A412109EE5122005026B
:1012C4006003121095D0E0B512E87F451210A89083
:1012D40001B2E07F2B30E7047F2DF404C0E012104C
:1012E400B6D0E075F00A84C0F012109FD0E012105E
:1012F4009F0210F0791080027908C206C2088008A3
:10130400D2D5790A8004790AC2D5E512047002F5AF
:1013140012E4FAFDFEFF121073FC7B082001131285
:101324001073FD7B1030000A121073FE121073FF4D
:101334007B20EC3382D592D55013C3E43000069F52
:10134400FFE49EFEE42001039DFDE49CFCE4CBF855
:10135400C201EC700CCFCECDCCE824F8F870F38049
:1013640017C3EF33FFEE33FEED33FDEC33FCEB3309
:10137400FB994002FB0FD8E9EB300105F8D0E0C43B
:1013840048B201C0E00AEC4D4E4F78207B0070C299
:10139400EAB5120040BCC0E012141CD0F0D0E0202A
:1013A4000104C4C0E0C4B201C0F012109FD0F0D553
:1013B400F0EB0210F012104D118D5312F858115E1B
:1013C4004C115A4212FC4F13044413044911734341
:1013D400130A5512374612974512014714D7501174
:1013E400622D11662E11892B116A2311872014C0D6
:1013F4002A11224800001181E512B4FF0375120678
:10140400121073FC121073FD121073FE121073FF8E
:101414009001AB020CF8790AA2D520031430050917
:10142400B910020404B9080104A2D520060250012F
:10143400042002689202B511005034C0E07F2030CD
:1014440003197F30A20272067205500F121473C280
:1014540002C206C205C2087F30800F300503E9C00E
:10146400E01210B6300503D0E0F9D0E0B511CC306D
:1014740005177F30B9100C1210B67F583004077F5F
:10148400788003B908031210B63002057F2D0210CC
:10149400B67F202008F87F2B2006F322920280CF0B
:1014A4007F00B40700500B24ABF582E43401F583CC
:1014B400E0FF22286E756C6C2900D2011210733083
:1014C40001F8C201781130D50108F60211222D501D
:1014D4004349581210732403B405004001E49014E6
:1014E400D2931210A7743A1210A7D20375110402F2
:0214F40012F8EC
:100C7100E9D2E7C933E833F892D5EDD2E7CD33ECC9
:070C810033FC5002B2D52242
:100C8800EC30E7100FBF000C0EBE00080DBD0004CD
:100C98000BEB6014A2D5EB13FCED92E7FD2274FF79
:100CA800FCFDFEFF22E480F8A2D574FF13FC7D80D2
:030CB800E480EFE6
:100CBB00F920E73624F950037907E4F42402FBE525
:100CCB0082158270021583DBF6E024FB501BE96072
:100CDB0014E4F0E582158270021583E004F0B40A87
:0D0CEB0008E4F0D9EE7401F00A22C2D5220F
:100CF800ED33EC3392D5FA602AB4FF33EDC2E77BCB
:100D0800FF60067A0D791DE4227A0D792620D50434
:100D18007A0D7921224E614E002B494E46002D490D
:100D28004E4600E47A08F0A3DAFC7B00740722C080
:100D380083C082ECC0E0EDC0E0EEC0E0EFC0E0EAC6
:100D480075F010A4CAABF075F04DA42BFBE435F098
:100D5800FCEA2410FAEB34C5FBEC34D9FCEDC2E70D
:100D6800FF75F056A4F42411C5F0F434C58FF0A42F
:100D78002AE5F03BE43CF020E714120ECDD0E0FF6A
:100D8800D0E0FED0E0FDD0E0FC120E008014F404A8
:100D9800120ECDD0E0FFD0E0FED0E0FDD0E0FC1296
:100DA8000AF6D082D083E0FAEDD2E7CD33EC3324D3
:100DB80082FBE4C3CF33CFCE33CECD33CD33DBF399
:100DC8007B0775F00A846004F0A31B0AE5F0F0A322
:100DD8008FF0740AA4FFACF08EF0740AA42CFEAC59
:100DE800F050010C8DF0740AA42CFDE435F0F0A34A
:050DF800DBDE740722A0
:100DFD00020CB0EC5D046005E859047003020CA60A
:100E0D00120C71580460F6EC4860F2EC7004FDFEB3
:100E1D00FF22C860DB2481C85009C39860025006C8
:100E2D00020CAD9850CAF582E9294B4A7005AB8288
:100E3D00020C9C75F0007C1A7880C3EF9BEE9AED46
:100E4D0099400DC3EF9BFFEE9AFEED99FDE842F040
:100E5D00DC23ACF0D0E0FFD0E0FED0E0FDAB822093
:100E6D00E7101BEB60BAEC2CFCEF33FFEE33FEED1D
:100E7D0033FD020C88E803F830E705C0F075F0008B
:100E8D00EF2FFFEE33FEED33FD40B830E7C280AA01
:100E9D003F8000004120000042C80000447A00005D
:100EAD00461C400047C35000497424004B189680DF
:100EBD004CBEBC205A0E1BCA6753C21C749DC5AED6
:100ECD00FB60065407601C2323120EFBEB543860A5
:100EDD0009120EE7120EF6120AF6ECF8EDF9EEFA1B
:100EED00EFCB22EB120EF680F1543803241C900E3A
:100EFD009DFE93FC0EEE93FD0EEE930ECE93FF2210
:101A6B00021DADE493A3F8E493A34003F68001F2C7
:101A7B0008DFF48029E493A3F85407240CC8C3337C
:101A8B00C4540F4420C8834004F456800146F6DF4B
:101A9B00E4800B0102040810204080901D25E47E99
:101AAB00019360BCA3FF543F30E509541FFEE49340
:101ABB00A360010ECF54C025E060A840B8E493A307
:101ACB00FAE493A3F8E493A3C8C582C8CAC583CA32
:101ADB00F0A3C8C582C8CAC583CADFE9DEE780BEEA
:011D6A000078
:100F0D00BB010689828A83E0225002E722BBFE02E2
:090F1D00E32289828A83E4932215
:100F2600BB010CE58229F582E5833AF583E0225080
:100F360006E92582F8E622BBFE06E92582F8E222CA
:0D0F4600E58229F582E5833AF583E49322E4
:100F5300BB010689828A83F0225002F722BBFE017D
:020F6300F32277
:100F6500EF8DF0A4A8F0CF8CF0A428CE8DF0A42EA0
:020F7500FE225A
:100F7700BC000BBE0029EF8DF084FFADF022E4CC5E
:100F8700F875F008EF2FFFEE33FEEC33FCEE9DEC27
:100F9700984005FCEE9DFE0FD5F0E9E4CEFD22ED6D
:100FA700F8F5F0EE8420D21CFEADF075F008EF2FB7
:100FB700FFED33FD4007985006D5F0F222C398FDA8
:050FC7000FD5F0EA2245
:100FCC00A3F8E0C5F025F0F0E582158270021583D8
:060FDC00E0C838F0E82235
:0E0FE200C3E49FFFE49EFEE49DFDE49CFC2220
:0C0FF000ECF0A3EDF0A3EEF0A3EFF02274
:100FFC00A8828583F0D083D08212101312101312A2
:10100C001013121013E473E493A3C583C5F0C583C6
:10101C00C8C582C8F0A3C583C5F0C583C8C582C83E
:01102C0022A1
:10102D00F8E0FBA3A3E0F925F0F0E582158270024C
:07103D001583E0FA38F022F0
:09104400EBF0A3EAF0A3E9F022AD
:10104D00D083D082F8E4937012740193700DA3A332
:10105D0093F8740193F5828883E473740293686046
:06106D00EFA3A3A380DF46
:00000001FF
